:1000000001308A0089290000FF00030E8301A1004E
:100010000A08A0008A010408A2007708A300780853
:10002000A4007908A5007A08A600831383120B1E8A
:100030001B288B182C28220884002308F70024088A
:10004000F8002508F9002608FA0020088A00210E89
:100050008300FF0E7F0E09008A110A122F2800303C
:10006000F8001F08C33978049F003130F700F70B00
:1000700037283A289F149F183B2883161E0883129E
:10008000A7001E08A8000430F8001F08C339780430
:100090009F003130F700F70B4B284E289F149F1814
:1000A0004F2883161E088312A9001E08AA002808DC
:1000B000003C03189428FF3A031D62282708803C5F
:1000C000031894282808023C031C9428031D6C285C
:1000D0002708803C031C94282A08013C0318812827
:1000E000FF3A031D77282908803C031881282A0835
:1000F000033C031C8128031D80282908803C031829
:10010000AB01AA08031D88282908803C03189428FD
:100110002A08013C031C9428031D92282908803CCE
:10012000031C94280230AB00A808031D9B28270855
:10013000803C0318BC282808013C031CBC28031D74
:10014000A5282708803C031CBC282A08003C03186B
:10015000BC28FF3A031DB0282908803C0318BC289E
:100160002A08023C031CBC28031DBA282908803C2D
:10017000031CBC280130AB002808013C0318E82808
:10018000FF3A031DC7282708803C0318E8282808E1
:10019000033C031CE828031DD1282708803C031CCE
:1001A000E8282A08003C0318E828FF3A031DDC2849
:1001B0002908803C0318E8282A08023C031CE82888
:1001C000031DE6282908803C031CE8280330AB0007
:1001D0002808023C03181129FF3A031DF3282708B9
:1001E000803C031811292808033C031C11292A0804
:1001F000023C03180829FF3A031D02292908803C04
:10020000031808292A08033C031C08290430AB0002
:10021000AA08031D11292908803C031C1129073055
:10022000AB00A808031D2E292708803C031C2E299B
:100230002A08023C03182229FF3A031D2329290812
:10024000803C031800300530AB00AA08031D2E299E
:100250002908803C031C2E290630AB002C08033CE7
:100260000319AC012C0803193C29013A031954293C
:10027000033A03196C298429AB0803194A292B0B6B
:1002800042294A292B08023C03194A292B08033C1E
:10029000031D4F2983168610831286105329831657
:1002A0008610831286148429AB08031962292B0B4C
:1002B0005A2962292B08043C031962292B08053CA2
:1002C000031D672983168610831286106B298316F7
:1002D0008610831286148429AB0803197B292B0806
:1002E000023C03197B292B08043C03197B292B08AA
:1002F000063C031D802983168610831286108429EC
:100300008316861083128614AC0A8B108A110A1287
:100310001B2803081F398300A801A701AA01A9010E
:10032000AB01AC01831603170908C0398900031318
:100330001F129F1200300317880083128701880163
:10034000890183130313A801A701AA01A9010130A0
:10035000AB00AC010B1683160113C03083128B0463
:1003600003308316850003178800890101300313C9
:10037000860003170908C039890003131F129F1252
:10038000033003178800831203131F179F17831668
:100390009F1783121F148316861083128610CF298D
:0203A0006300F8
:04400E00C22FFF3F7F
:00000001FF
;PIC16F887
;CRC=E91F  CREATED="12-mar.-18 22:09"
