:1000000004308A00972C0000FF00030E8301A1003A
:100010000A08A0008A010408A2007708A300780853
:10002000A4007908A5007A08A600831383120B1E8A
:100030001B288B182C28220884002308F70024088A
:10004000F8002508F9002608FA0020088A00210E89
:100050008300FF0E7F0E09008A110A12CA298E3012
:10006000F7003308F8003208F900FA01F808031D18
:1000700043287908F800F9010830F702F808031D51
:100080004328F7014B280310F81B4A28F90DF80DF7
:10009000F7034328F8130800310803191129BD009C
:1000A000350803191129BD02031C5B287F30BD07E9
:1000B0000318112961288130BD02031C112903197D
:1000C00011293D08F700F801F901FA01BC013208D5
:1000D000BB00BB173308BA003408B9001930BD00A3
:1000E0003808B902031884280130BA02031884289A
:1000F000BB0203188428BC0203188428BC0ABB0A6C
:10010000BA0A3808B907B6283708BA0203189F2870
:100110000130BB0203189F28BC0203189F28BC0AA9
:10012000BB0A3708BA073808B907031CB628BA0A49
:10013000031DB628BB0A031DB628BC0AB62836081C
:100140008038BB020318B5280130BC020318B5285B
:10015000BC0A36088038BB073708BA07031C932847
:10016000BB0A031D9328BC0A93287A14BD0BB92837
:10017000C4280310B90DBA0DBB0DBC0D0310FA0D48
:10018000F90DF80DBE0D70283E1CCC280310F80C9C
:10019000F90CFA0CBE0CCF28F70303191129BE1B6A
:1001A000F8280310B90DBA0DBB0DBC0D3808B90203
:1001B0000318E4280130BA020318E428BB0203182C
:1001C000E428BC02031C07293708BA020318EF28E9
:1001D0000130BB020318EF28BC02031C07293608B4
:1001E0008038BB020318F8280130BC02031C072921
:1001F000FA0A031D0729F90A031D0729F80A031D36
:100200000729F70A03191129F80CF90CFA0C32081E
:10021000BD003608BD06BD1F0F29F8171529F813B4
:100220001529F701F801F901FA0108003508031949
:100230008629BD00390803198629BD070318272917
:100240007F30BD02031C8629031986292B298130A2
:10025000BD07031886293D08F700F801F901FA01E6
:100260003608C100C1173708C0003808BF00183071
:10027000BD00BE013F1C54293C08FA07031C462957
:10028000F90A031D4629F80A0319BE173B08F907A6
:10029000031C4D29F80A0319BE173A08B700B7170F
:1002A0003708F8070318BE17BE0DF80CF90CFA0C46
:1002B000C10CC00CBF0C0310BD0B39290130F7076E
:1002C00003188629F81B6B29C10DFA0DF90DF80DDD
:1002D000F70303198629C11F7C29FA0A031D7C290B
:1002E000F90A031D7C29F80A031D7C29F80CF90C76
:1002F000FA0CF70A031986293608BE003A08BE062A
:10030000BE1F8429F8178A29F8138A29F701F801F2
:10031000F901FA0108003308BA003708BA06BA1F13
:10032000962903110310B31B0314C9293308BA001B
:100330003608BB003208BB020319A429BA1FC92919
:100340000308013A8300C9293708BB003308BB0200
:100350000319B029BA1FC9290308013A8300C92922
:100360003808BB003408BB020319BC29BA1FC929CD
:100370000308013A8300C9293908BB003508BB02CC
:100380000319C829BA1FC9290308013A8300C929DA
:10039000031008001430F8001F08C33978049F00C8
:1003A0009F149F18D1291E08FA0083161E08831275
:1003B000B2001E08B3002F207A08AA007908A9000D
:1003C0007808A8007708A7002A08B4002908B30015
:1003D0002808B2002708B100B801B701B60189307A
:1003E000B5004C207A08B4007908B3007808B20050
:1003F0007708B1007A08B8007908B7007808B60025
:100400007708B500BC01BB012030BA008130B900CB
:1004100016217A08AA007908A9007808A8007708A8
:10042000A7001830F8001F08C33978049F009F14F4
:100430009F18182A1E08FA0083161E088312B2009D
:100440001E08B3002F207A08AE007908AD007808A6
:10045000AC007708AB002E08B4002D08B3002C08C0
:10046000B2002B08B100B801B701B6018930B50060
:100470004C207A08B4007908B3007808B2007708F5
:10048000B1007A08B8007908B7007808B600770894
:10049000B500BC01BB012030BA008130B900162183
:1004A0007A08AE007908AD007808AC007708AB0098
:1004B000B501B4017030B3007F30B2002A08B90032
:1004C0002908B8002808B7002708B6008B2100309B
:1004D00003180130B301B2002F207A08B500790863
:1004E000B4007808B3007708B200B901B801483009
:1004F000B7008030B6008B210318802A031DD22A52
:10050000B501B4014830B3008030B2002E08B90004
:100510002D08B8002C08B7002B08B6008B2100303E
:1005200003180130B301B2002F207A08B500790812
:10053000B4007808B3007708B200B901B8010C30F4
:10054000B7008130B6008B210318A72A0319AF0129
:10055000B501B4012030B3007E30B2002E08B900DE
:100560002D08B8002C08B7002B08B6008B210030EE
:1005700003180130B301B2002F207A08B5007908C2
:10058000B4007808B3007708B200B901B801703040
:10059000B7007F30B6008B210318D02A031DD22A62
:1005A0000230AF00B501B4012030B3007E30B2009C
:1005B0002A08B9002908B8002808B7002708B6009B
:1005C0008B21003003180130B301B2002F207A08CC
:1005D000B5007908B4007808B3007708B200B90113
:1005E000B8017030B7007F30B6008B210318FA2AAB
:1005F000031D242BB501B4017030B3007F30B2006D
:100600002E08B9002D08B8002C08B7002B08B6003A
:100610008B21003003180130B301B2002F207A087B
:10062000B5007908B4007808B3007708B200B901C2
:10063000B8014830B7008030B6008B210318222B58
:10064000031D242B0130AF00B501B4014830B300C5
:100650008030B2002A08B9002908B8002808B7007D
:100660002708B6008B21003003180130B301B20017
:100670002F207A08B5007908B4007808B30077080D
:10068000B200B901B8010C30B7008130B6008B213F
:1006900003184C2B031D762BB501B4017030B30049
:1006A0007F30B2002E08B9002D08B8002C08B70022
:1006B0002B08B6008B21003003180130B301B200C3
:1006C0002F207A08B5007908B4007808B3007708BD
:1006D000B200B901B8014830B7008030B6008B21B4
:1006E0000318742B031D762B0330AF00B501B40142
:1006F0000C30B3008130B2002E08B9002D08B800CC
:100700002C08B7002B08B6008B21003003180130ED
:10071000053C031CCE2BB501B4010C30B300813075
:10072000B2002E08B9002D08B8002C08B7002B081D
:10073000B6008B21003003180130053C031CA22BAE
:100740000430AF00B501B401B301B2012E08B90005
:100750002D08B8002C08B7002B08B6008B21031811
:10076000B52B0319B52B0030B62B0130B301B20005
:100770002F207A08B5007908B4007808B30077080C
:10078000B200B901B8012030B7007E30B6008B212D
:100790000318CC2B031DCE2B0730AF00B501B401DD
:1007A000B301B2012A08B9002908B8002808B70027
:1007B0002708B6008B210318E12B0319E12B003029
:1007C000E22B0130B301B2002F207A08B50079087E
:1007D000B4007808B3007708B200B901B80120303E
:1007E000B7007E30B6008B210318F82B031D3B2C7D
:1007F000B501B4010C30B3008130B2002E08B9004D
:100800002D08B8002C08B7002B08B6008B2100304B
:1008100003180130053C031C0F2C0530AF00B50157
:10082000B401B301B2012E08B9002D08B8002C089C
:10083000B7002B08B6008B210318222C0319222C99
:100840000030232C0130B301B2002F207A08B5000C
:100850007908B4007808B3007708B200B901B8018C
:100860002030B7007E30B6008B210318392C031DD1
:100870003B2C0630AF000330B000B008031DB001C0
:10088000300803194A2C013A0319622C033A031960
:100890007A2C922CAF080319582C2F0B502C582C63
:1008A0002F08023C0319582C2F08033C031D5D2C14
:1008B0008316051083120510612C83160510831210
:1008C0000514922CAF080319702C2F0B682C702C78
:1008D0002F08043C0319702C2F08053C031D752CB0
:1008E0008316051083120510792C831605108312C8
:1008F0000514922CAF080319892C2F08023C031908
:10090000892C2F08043C0319892C2F08063C031D51
:100910008E2C8316051083120510922C8316051059
:1009200083120514B00A8B108A110A121B280308BF
:100930001F398300831603170908C0398900031380
:100940001F129F120030031788008312870188014D
:10095000890183130313AA01A901A801A701AE010C
:10096000AD01AC01AB01AF01B0010B168316011351
:10097000C03083128B04831603170908C03989001D
:1009800003131F129F1207300317880083120313EB
:100990001F139F1783169F1783121F148316850139
:0A09A000051083120510D32C63002C
:04400E00C72FFF3F7A
:00000001FF
;PIC16F887
;CRC=7C97  CREATED="01-mar.-18 18:58"
