:1000000000308A008A280000FF00030E8301A1004F
:100010000A08A0008A010408A2007708A300780853
:10002000A4007908A5007A08A600831383120B1E8A
:100030001B288B182C28220884002308F70024088A
:10004000F8002508F9002608FA0020088A00210E89
:100050008300FF0E7F0E09008A110A122F28300834
:10006000033C0319B001300803193D28013A031974
:100070005528033A03196D288528AF0803194B2822
:100080002F0B43284B282F08023C03194B282F081D
:10009000033C031D502883160510831205105428B5
:1000A00083160510831205148528AF0803196328E9
:1000B0002F0B5B2863282F08043C031963282F08A3
:1000C000053C031D682883160510831205106C2853
:1000D00083160510831205148528AF0803197C28A0
:1000E0002F08023C03197C282F08043C03197C28A4
:1000F0002F08063C031D8128831605108312051066
:1001000085288316051083120514B00A8B108A11F6
:100110000A121B2803081F398300831603170908D6
:10012000C039890003131F129F1200300317880083
:10013000831287018801890183130313AA01A9018E
:10014000A801A701AE01AD01AC01AB010730AF00C2
:10015000B0010B1683160113C03083128B04831673
:0C0160008501051083120510B42863000F
:04400E00C22FFF3F7F
:00000001FF
;PIC16F887
;CRC=94B2  CREATED="07-mar.-18 15:23"
