:1000000000308A000428000003081F398300713083
:1000100083168F0090010F0801308312A000013079
:10002000A100831603170908C039890003131F12A2
:100030009F1200300317880083128701880189010D
:1000400083130313A201A301A401A501A60101309A
:10005000A700A801A900AA01AB01AC00AD00AE0049
:10006000AF01B001B100B201B300B400B500B601F8
:10007000B700B800B900BA01BB01BC0171308316EA
:0C0080008F0090010F08850144286300E8
:04400E00E42FFF3F5D
:00000001FF
;PIC16F887
;CRC=C44A  CREATED="10-feb.-18 11:48"
