:1000000000308A0081280000FF00030E8301A10058
:100010000A08A0008A010408A2007708A300780853
:10002000A4007908A5007A08A600831383120B1E8A
:100030001B288B182C28220884002308F70024088A
:10004000F8002508F9002608FA0020088A00210E89
:100050008300FF0E7F0E09008A110A122F2827083D
:10006000183C0319A7012808033C031D5928420B1B
:100070003E288316051183120515422883160511A3
:1000800083120511430B49288316851183128515A8
:100090004D288316851183128511440B542883162D
:1000A00005128312051658288316051283120512AD
:1000B000A8012930270784008313000B64288316C6
:1000C0008510831285146828831685108312851085
:1000D00041302807F800FA010318FA0A29302707E7
:1000E000840083130008C6007808840083137A18FC
:1000F000831746088000A80AA70A8B108A110A12E3
:100100001B2803081F398300613083168F0090017C
:100110000F0801308312A7000130A80083160317CF
:100120000908C039890003131F129F1200300317FA
:100130008800831287018801890183130313A901B1
:10014000AA01AB01AC01AD010130AE00AF01B000BE
:10015000B101B201B300B400B500B601B701B800F7
:10016000B901BA00BB00BC00BD01BE00BF00C000A9
:10017000C101C201C3018316850183120B168316C8
:100180000113C03083128B04A801A701C6286300A5
:04400E00E42FFF3F5D
:00000001FF
;PIC16F887
;CRC=DC94  CREATED="10-feb.-18 12:56"
