:1000000000308A00152800000830A202031C1428C2
:100010002230840083130310800C00080319142875
:1000200012280000800B1128080003081F398300E4
:10003000713083168F000F0803170908C039890033
:1000400003131F129F1200300317880083128701C9
:100050008801890183138316031306108312061483
:100060000230A100F830A2000420A10B3228831630
:100070000610831206100230A100F830A2000420FE
:0A008000A10B3D2803172B28630095
:04400E00E42FFF3F5D
:00000001FF
;PIC16F887
;CRC=C1EB  CREATED="09-feb.-18 22:30"
