:1000000002308A001D2A0000FF00030E8301A100B8
:100010000A08A0008A010408A2007708A300780853
:10002000A4007908A5007A08A600831383120B1E8A
:100030001B288B182C28220884002308F70024088A
:10004000F8002508F9002608FA0020088A00210E89
:100050008300FF0E7F0E09008A110A128B298E3051
:10006000F7003408F8003308F900FA01F808031D16
:1000700043287908F800F9010830F702F808031D51
:100080004328F7014B280310F81B4A28F90DF80DF7
:10009000F7034328F8130800330803191129BF0098
:1000A000370803191129BF02031C5B287F30BF07E3
:1000B0000318112961288130BF02031C112903197B
:1000C00011293F08F700F801F901FA01BE013408CF
:1000D000BD00BD173508BC003608BB001930BF0095
:1000E0003A08BB02031884280130BC020318842894
:1000F000BD0203188428BE0203188428BE0ABD0A64
:10010000BC0A3A08BB07B6283908BC0203189F2866
:100110000130BD0203189F28BE0203189F28BE0AA3
:10012000BD0A3908BC073A08BB07031CB628BC0A3D
:10013000031DB628BD0A031DB628BE0AB628380816
:100140008038BD020318B5280130BE020318B52857
:10015000BE0A38088038BD073908BC07031C93283D
:10016000BD0A031D9328BE0A93287A14BF0BB92831
:10017000C4280310BB0DBC0DBD0DBE0D0310FA0D40
:10018000F90DF80DC00D7028401CCC280310F80C98
:10019000F90CFA0CC00CCF28F70303191129C01B66
:1001A000F8280310BB0DBC0DBD0DBE0D3A08BB02F7
:1001B0000318E4280130BC020318E428BD02031828
:1001C000E428BE02031C07293908BC020318EF28E3
:1001D0000130BD020318EF28BE02031C07293808AE
:1001E0008038BD020318F8280130BE02031C07291D
:1001F000FA0A031D0729F90A031D0729F80A031D36
:100200000729F70A03191129F80CF90CFA0C34081C
:10021000BF003808BF06BF1F0F29F8171529F813AC
:100220001529F701F801F901FA0108003708031947
:100230008629BF003B0803198629BF070318272911
:100240007F30BF02031C8629031986292B298130A0
:10025000BF07031886293F08F700F801F901FA01E2
:100260003808C300C3173908C2003A08C100183063
:10027000BF00C001411C54293E08FA07031C46294F
:10028000F90A031D4629F80A0319C0173D08F907A2
:10029000031C4D29F80A0319C0173C08B900B91707
:1002A0003908F8070318C017C00DF80CF90CFA0C40
:1002B000C30CC20CC10C0310BF0B39290130F70766
:1002C00003188629F81B6B29C30DFA0DF90DF80DDB
:1002D000F70303198629C31F7C29FA0A031D7C2909
:1002E000F90A031D7C29F80A031D7C29F80CF90C76
:1002F000FA0CF70A031986293808C0003C08C00622
:10030000C01F8429F8178A29F8138A29F701F801F0
:10031000F901FA0108001430F8001F08C339780405
:100320009F009F149F1892291E08FA0083161E082A
:100330008312B3001E08B4002F207A08AA0079089F
:10034000A9007808A8007708A7002A08B60029089D
:10035000B5002808B4002708B300BA01B901B801F4
:100360008930B7004C207A08B6007908B5007808C3
:10037000B4007708B3007A08BA007908B9007808A1
:10038000B8007708B700BE01BD012030BC00813045
:10039000BB0016217A08AE007908AD007808AC00E1
:1003A0007708AB001830F8001F08C33978049F00A5
:1003B0009F149F18D9291E08FA0083161E0883125D
:1003C000B3001E08B4002F207A08AA007908A900FB
:1003D0007808A8007708A7002A08B6002908B50001
:1003E0002808B4002708B300BA01B901B801893060
:1003F000B7004C207A08B6007908B5007808B40038
:100400007708B3007A08BA007908B9007808B8000C
:100410007708B700BE01BD012030BC008130BB00B1
:1004200016217A08B2007908B1007808B000770880
:10043000AF008B108A110A121B2803081F39830092
:10044000831603170908C039890003131F129F126E
:100450000030031788008312870188018901831304
:1004600003130B1683160113C03083128B048316FB
:1004700003170908C039890003131F129F120730A0
:1004800003178800831203131F139F1783169F17E8
:1004900083121F141430F8001F08C33978049F001A
:0404A000502A63007B
:04400E00C72FFF3F7A
:00000001FF
;PIC16F887
;CRC=04FF  CREATED="24-feb.-18 00:17"
