:1000000000308A0080280000FF00030E8301A10059
:100010007F08A0000A08A7008A01A00E0408A20019
:100020007708A3007808A4007908A5007A08A6003C
:10003000831383120B1E1E288B182F28220884007E
:100040002308F7002408F8002508F9002608FA001C
:1000500027088A00210E8300FF0E7F0E0900280862
:10006000183C0319A8012908033C031D5928420B19
:100070003E28831685108312851442288316851026
:1000800083128510430B4928831605118312051529
:100090004D288316051183120511440B542883162D
:1000A00085118312851558288316851183128511B1
:1000B000A9012A30280784008313000B64288316C3
:1000C0000510831205146828831605108312051085
:1000D00042302907F800FA010318FA0A2A302807E3
:1000E000840083130008C7007808840083137A18FB
:1000F000831747088000A90AA80A8B108A111E28B6
:1001000003081F398300A801A90107309F0083134A
:10011000AA01AB01AC01AD01AE010130AF00B001ED
:10012000B100B201B301B400B500B600B701B80127
:10013000B900BA01BB00BC00BD00BE01BF00C000D9
:10014000C100C201C301C4018316850101308600CC
:1001500083120B1683160113C03083128B04A9017E
:10016000A8018316051083120510831685108312CB
:1001700085108316051183120511831685118312CC
:060180008511C128630097
:02400E00423F2F
:00000001FF
;PIC16F628A
;CRC=D735  CREATED="06-mar.-18 13:46"
